{
  "transactions": [
    {
      "hash": "0x7b55b1db4cee7c25e705eb99d226dc358ee5f19ee574d8d2a9e59fd7fd81ff84",
      "transactionType": "CALL",
      "contractName": null,
      "contractAddress": "0x779877a7b0d9e8603169ddbd7836e478b4624789",
      "function": "transferAndCall(address,uint256,bytes)",
      "arguments": [
        "0x9DdfaCa8183c41ad55329BdeeD9F6A8d53168B1B",
        "3000000000000000000",
        "0x7b1773e90a30a3f3ec17bfd791077ab42b8790460041770ceacf50309aed78d8"
      ],
      "transaction": {
        "from": "0x8042a7936f5d02f0f85d064029c3ae3f9fbb1b98",
        "to": "0x779877a7b0d9e8603169ddbd7836e478b4624789",
        "gas": "0x1a8ee",
        "value": "0x0",
        "input": "0x4000aea00000000000000000000000009ddfaca8183c41ad55329bdeed9f6a8d53168b1b00000000000000000000000000000000000000000000000029a2241af62c0000000000000000000000000000000000000000000000000000000000000000006000000000000000000000000000000000000000000000000000000000000000207b1773e90a30a3f3ec17bfd791077ab42b8790460041770ceacf50309aed78d8",
        "nonce": "0x6",
        "chainId": "0xaa36a7"
      },
      "additionalContracts": [],
      "isFixedGasLimit": false
    }
  ],
  "receipts": [
    {
      "status": "0x1",
      "cumulativeGasUsed": "0xd65c9d",
      "logs": [
        {
          "address": "0x779877a7b0d9e8603169ddbd7836e478b4624789",
          "topics": [
            "0xddf252ad1be2c89b69c2b068fc378daa952ba7f163c4a11628f55a4df523b3ef",
            "0x0000000000000000000000008042a7936f5d02f0f85d064029c3ae3f9fbb1b98",
            "0x0000000000000000000000009ddfaca8183c41ad55329bdeed9f6a8d53168b1b"
          ],
          "data": "0x00000000000000000000000000000000000000000000000029a2241af62c0000",
          "blockHash": "0x7683b6c76856d1e69f16b5b98672ac6bc58af1505b05241ee2a124d5fb6e5337",
          "blockNumber": "0x637660",
          "transactionHash": "0x7b55b1db4cee7c25e705eb99d226dc358ee5f19ee574d8d2a9e59fd7fd81ff84",
          "transactionIndex": "0x4b",
          "logIndex": "0x7e",
          "removed": false
        },
        {
          "address": "0x779877a7b0d9e8603169ddbd7836e478b4624789",
          "topics": [
            "0xe19260aff97b920c7df27010903aeb9c8d2be5d310a2c67824cf3f15396e4c16",
            "0x0000000000000000000000008042a7936f5d02f0f85d064029c3ae3f9fbb1b98",
            "0x0000000000000000000000009ddfaca8183c41ad55329bdeed9f6a8d53168b1b"
          ],
          "data": "0x00000000000000000000000000000000000000000000000029a2241af62c0000000000000000000000000000000000000000000000000000000000000000004000000000000000000000000000000000000000000000000000000000000000207b1773e90a30a3f3ec17bfd791077ab42b8790460041770ceacf50309aed78d8",
          "blockHash": "0x7683b6c76856d1e69f16b5b98672ac6bc58af1505b05241ee2a124d5fb6e5337",
          "blockNumber": "0x637660",
          "transactionHash": "0x7b55b1db4cee7c25e705eb99d226dc358ee5f19ee574d8d2a9e59fd7fd81ff84",
          "transactionIndex": "0x4b",
          "logIndex": "0x7f",
          "removed": false
        },
        {
          "address": "0x9ddfaca8183c41ad55329bdeed9f6a8d53168b1b",
          "topics": [
            "0x1ced9348ff549fceab2ac57cd3a9de38edaaab274b725ee82c23e8fc8c4eec7a",
            "0x7b1773e90a30a3f3ec17bfd791077ab42b8790460041770ceacf50309aed78d8"
          ],
          "data": "0x000000000000000000000000000000000000000000000000000000000000000000000000000000000000000000000000000000000000000029a2241af62c0000",
          "blockHash": "0x7683b6c76856d1e69f16b5b98672ac6bc58af1505b05241ee2a124d5fb6e5337",
          "blockNumber": "0x637660",
          "transactionHash": "0x7b55b1db4cee7c25e705eb99d226dc358ee5f19ee574d8d2a9e59fd7fd81ff84",
          "transactionIndex": "0x4b",
          "logIndex": "0x80",
          "removed": false
        }
      ],
      "logsBloom": "0x00000004000000000000000000000000000000000020000000000000020000000000000000000000000000000000000000000000000000000000000400000000000000000000000000000008000000000000000000000000000020000020000008000000000000000000000000000000000000000000000000000010000040000000000000000000000000010000800000000020000000000000000000000000000000000000000000000000010000000600000000000040000004000000000000000002000000000000000000000000000000000000000100000000000000000010000000000000800000000000004000000000000000000000000000000800",
      "type": "0x2",
      "transactionHash": "0x7b55b1db4cee7c25e705eb99d226dc358ee5f19ee574d8d2a9e59fd7fd81ff84",
      "transactionIndex": "0x4b",
      "blockHash": "0x7683b6c76856d1e69f16b5b98672ac6bc58af1505b05241ee2a124d5fb6e5337",
      "blockNumber": "0x637660",
      "gasUsed": "0x133a5",
      "effectiveGasPrice": "0x132c094",
      "from": "0x8042a7936f5d02f0f85d064029c3ae3f9fbb1b98",
      "to": "0x779877a7b0d9e8603169ddbd7836e478b4624789",
      "contractAddress": null
    }
  ],
  "libraries": [],
  "pending": [],
  "returns": {},
  "timestamp": 1723907955,
  "chain": 11155111,
  "commit": "186756c"
}